:020000040000FA
:020000007E2858
:08000800A000A00E030EA100F0
:100010008B1C3A28281F2C28101C24280E08C600E8
:100020000F08C5008F018E01A813C60A0319C50A5F
:10003000C60CC6134518C617C50CC513A8168B10D9
:10004000210E8300200E090010148F018E018B10E9
:10005000210E8300200E09004208031D33284103AE
:10006000C20085143528C20385108B10210E830031
:10007000200E09000C1C7A28A8194528A8170C1076
:100080001010210E8300200E0900281C4F28281D67
:100090008516AA0AA701A501D7210C107A28AA0162
:1000A000A81C5E282B08031D58281430A6005B28C6
:1000B0002B0DA6002610271C66286428240DA600F8
:1000C0002610271866286428D7216A28FC308F005C
:1000D000F3308E000C10A50A031D7A28A70A851696
:1000E00027082602031C7728271C85127A28FD3C46
:1000F0000318A701210E8300200E090083120313A9
:100100004F3084008001840315300402031D8228CF
:10011000073099000B178B17851D8E29DA28303090
:10012000A300A20A031D9128A303031D9128080020
:100130000530D00085128F2085168F20D003031D37
:100140009A2808009B001C141A088312080001302A
:1001500083169B008312013083169A001C158B13A3
:1001600055309D00AA309D009C148B1783128F2060
:100170000230CC208F20033083169B008312013085
:1001800083169A001C158B1355309D00AA309D00D4
:100190009C148B178312080083169B009A011C1570
:1001A0008B1355309D00AA309D009C148B17831231
:1001B0008F200800A811A817831601309B001C147B
:1001C0001A088312BE00831602309B001C141A0802
:1001D0008312AC00831603309B001C141A08831290
:1001E000AD00CA2183160C30850004309600003023
:1001F0009F008312850183168330810083128F0153
:100200008E010C103530900083160C1483128B1065
:100210000B1601303E02031D0F2928131729023047
:100220003E02031D172928171010A8171B290000CC
:10023000000017291729450AC8004608C700A81E4C
:100240002729A8120430C702031CC8030000083085
:10025000C702031CC8030000000000004108C702D9
:1002600003182B29C80B2D29851C382985101B291B
:100270008514A81B39291B291B29281585128F20B5
:1002800085168F2085128F2085168F2085128F204E
:1002900085168F20851D4A292811AA01A901A701C9
:1002A000A5012810A81C5729A8105A215829A814BC
:1002B00008000800A81C7F292403031D6729AB0A36
:1002C00003302B02031C6E290130AB006E29AB0AF0
:1002D0000A302B02031C6E290030AB002408831661
:1002E0009B0083122B0883169A001C158B13553024
:1002F0009D00AA309D009C148B1783120800A40A4D
:1003000004302402031C86290130A400831624082B
:100310009B001C141A088312AB00080083160C30D3
:1003200085000C30960000309F008312003085005D
:10033000A8155A219820982098209820F430C000C1
:100340008F20C00A031DA629A7209A29851DA02950
:100350000530900083160C1483128030AE00AE0F6F
:10036000AF29851DBD29A901281CAD29A901281087
:10037000A701A501D7215A21AD29FA302A02031875
:100380003D21A90A031DAD2985162818AD29281479
:10039000D721AD292D08C1002C080319D6290A3010
:1003A000D0002C08C107D003031DD1290800F33069
:0803B0008F00CB308E00080025
:02400E00443F2D
:10420000FF000200000003005620652072202E20CF
:1042100031202E2031202E2044206520732069205B
:1042200067206E20202062207920202045206C20ED
:104230002E2020202020202065206C2040206D2072
:104240006F2074206F202E2063206F206D202E2081
:0A42500075206120202020200020AE
:00000001FF
